{
  "contractName": "Attendance",
  "abi": [
    {
      "inputs": [
        {
          "internalType": "uint256",
          "name": "",
          "type": "uint256"
        }
      ],
      "name": "attendanceRecords",
      "outputs": [
        {
          "internalType": "uint256",
          "name": "id",
          "type": "uint256"
        },
        {
          "internalType": "uint256",
          "name": "date",
          "type": "uint256"
        },
        {
          "internalType": "string",
          "name": "idNumber",
          "type": "string"
        }
      ],
      "stateMutability": "view",
      "type": "function",
      "constant": true
    },
    {
      "inputs": [],
      "name": "idCounter",
      "outputs": [
        {
          "internalType": "uint256",
          "name": "",
          "type": "uint256"
        }
      ],
      "stateMutability": "view",
      "type": "function",
      "constant": true
    },
    {
      "inputs": [
        {
          "internalType": "string",
          "name": "_idNumber",
          "type": "string"
        },
        {
          "internalType": "uint256",
          "name": "_date",
          "type": "uint256"
        }
      ],
      "name": "addAttendance",
      "outputs": [],
      "stateMutability": "nonpayable",
      "type": "function"
    },
    {
      "inputs": [],
      "name": "getAllAttendance",
      "outputs": [
        {
          "components": [
            {
              "internalType": "uint256",
              "name": "id",
              "type": "uint256"
            },
            {
              "internalType": "uint256",
              "name": "date",
              "type": "uint256"
            },
            {
              "internalType": "string",
              "name": "idNumber",
              "type": "string"
            }
          ],
          "internalType": "struct Attendance.AttendanceRecord[]",
          "name": "",
          "type": "tuple[]"
        }
      ],
      "stateMutability": "view",
      "type": "function",
      "constant": true
    }
  ],
  "bytecode": "0x608060405234801561001057600080fd5b50610b58806100206000396000f3fe608060405234801561001057600080fd5b506004361061004c5760003560e01c80630a6fdeee146100515780631f6867c81461006f5780635763c1841461008b578063eb08ab28146100bd575b600080fd5b6100596100db565b60405161006691906104fb565b60405180910390f35b61008960048036038101906100849190610692565b6101e0565b005b6100a560048036038101906100a091906106ee565b610278565b6040516100b493929190610774565b60405180910390f35b6100c561033a565b6040516100d291906107b2565b60405180910390f35b60606000805480602002602001604051908101604052809291908181526020016000905b828210156101d757838290600052602060002090600302016040518060600160405290816000820154815260200160018201548152602001600282018054610146906107fc565b80601f0160208091040260200160405190810160405280929190818152602001828054610172906107fc565b80156101bf5780601f10610194576101008083540402835291602001916101bf565b820191906000526020600020905b8154815290600101906020018083116101a257829003601f168201915b505050505081525050815260200190600101906100ff565b50505050905090565b6000600160008154809291906101f59061085c565b9190505590506000604051806060016040528083815260200184815260200185815250905060008190806001815401808255809150506001900390600052602060002090600302016000909190919091506000820151816000015560208201518160010155604082015181600201908161026f9190610a50565b50505050505050565b6000818154811061028857600080fd5b90600052602060002090600302016000915090508060000154908060010154908060020180546102b7906107fc565b80601f01602080910402602001604051908101604052809291908181526020018280546102e3906107fc565b80156103305780601f1061030557610100808354040283529160200191610330565b820191906000526020600020905b81548152906001019060200180831161031357829003601f168201915b5050505050905083565b60015481565b600081519050919050565b600082825260208201905092915050565b6000819050602082019050919050565b6000819050919050565b61037f8161036c565b82525050565b600081519050919050565b600082825260208201905092915050565b60005b838110156103bf5780820151818401526020810190506103a4565b60008484015250505050565b6000601f19601f8301169050919050565b60006103e782610385565b6103f18185610390565b93506104018185602086016103a1565b61040a816103cb565b840191505092915050565b600060608301600083015161042d6000860182610376565b5060208301516104406020860182610376565b506040830151848203604086015261045882826103dc565b9150508091505092915050565b60006104718383610415565b905092915050565b6000602082019050919050565b600061049182610340565b61049b818561034b565b9350836020820285016104ad8561035c565b8060005b858110156104e957848403895281516104ca8582610465565b94506104d583610479565b925060208a019950506001810190506104b1565b50829750879550505050505092915050565b600060208201905081810360008301526105158184610486565b905092915050565b6000604051905090565b600080fd5b600080fd5b600080fd5b600080fd5b7f4e487b7100000000000000000000000000000000000000000000000000000000600052604160045260246000fd5b610573826103cb565b810181811067ffffffffffffffff821117156105925761059161053b565b5b80604052505050565b60006105a561051d565b90506105b1828261056a565b919050565b600067ffffffffffffffff8211156105d1576105d061053b565b5b6105da826103cb565b9050602081019050919050565b82818337600083830152505050565b6000610609610604846105b6565b61059b565b90508281526020810184848401111561062557610624610536565b5b6106308482856105e7565b509392505050565b600082601f83011261064d5761064c610531565b5b813561065d8482602086016105f6565b91505092915050565b61066f8161036c565b811461067a57600080fd5b50565b60008135905061068c81610666565b92915050565b600080604083850312156106a9576106a8610527565b5b600083013567ffffffffffffffff8111156106c7576106c661052c565b5b6106d385828601610638565b92505060206106e48582860161067d565b9150509250929050565b60006020828403121561070457610703610527565b5b60006107128482850161067d565b91505092915050565b6107248161036c565b82525050565b600082825260208201905092915050565b600061074682610385565b610750818561072a565b93506107608185602086016103a1565b610769816103cb565b840191505092915050565b6000606082019050610789600083018661071b565b610796602083018561071b565b81810360408301526107a8818461073b565b9050949350505050565b60006020820190506107c7600083018461071b565b92915050565b7f4e487b7100000000000000000000000000000000000000000000000000000000600052602260045260246000fd5b6000600282049050600182168061081457607f821691505b602082108103610827576108266107cd565b5b50919050565b7f4e487b7100000000000000000000000000000000000000000000000000000000600052601160045260246000fd5b60006108678261036c565b91507fffffffffffffffffffffffffffffffffffffffffffffffffffffffffffffffff82036108995761089861082d565b5b600182019050919050565b60008190508160005260206000209050919050565b60006020601f8301049050919050565b600082821b905092915050565b6000600883026109067fffffffffffffffffffffffffffffffffffffffffffffffffffffffffffffffff826108c9565b61091086836108c9565b95508019841693508086168417925050509392505050565b6000819050919050565b600061094d6109486109438461036c565b610928565b61036c565b9050919050565b6000819050919050565b61096783610932565b61097b61097382610954565b8484546108d6565b825550505050565b600090565b610990610983565b61099b81848461095e565b505050565b5b818110156109bf576109b4600082610988565b6001810190506109a1565b5050565b601f821115610a04576109d5816108a4565b6109de846108b9565b810160208510156109ed578190505b610a016109f9856108b9565b8301826109a0565b50505b505050565b600082821c905092915050565b6000610a2760001984600802610a09565b1980831691505092915050565b6000610a408383610a16565b9150826002028217905092915050565b610a5982610385565b67ffffffffffffffff811115610a7257610a7161053b565b5b610a7c82546107fc565b610a878282856109c3565b600060209050601f831160018114610aba5760008415610aa8578287015190505b610ab28582610a34565b865550610b1a565b601f198416610ac8866108a4565b60005b82811015610af057848901518255600182019150602085019450602081019050610acb565b86831015610b0d5784890151610b09601f891682610a16565b8355505b6001600288020188555050505b50505050505056fea2646970667358221220238c9299763eea4992eb43a13924bcc18449c52bef39319f63907140a51aa6b964736f6c63430008130033",
  "immutableReferences": {},
  "source": "// SPDX-License-Identifier: MIT\npragma solidity >=0.5.0 <0.9.0;\n\ncontract Attendance {\n    struct AttendanceRecord {\n        uint256 id;\n        uint256 date;\n        string idNumber;\n    }\n\n    AttendanceRecord[] public attendanceRecords;\n    uint256 public idCounter;\n\n    function addAttendance(string memory _idNumber, uint256 _date) public {\n        uint256 _id = idCounter++;\n\n        AttendanceRecord memory newAttendance = AttendanceRecord({\n            id: _id,\n            date: _date,\n            idNumber: _idNumber\n        });\n\n        attendanceRecords.push(newAttendance);\n    }\n\n    function getAllAttendance() public view returns (AttendanceRecord[] memory) {\n        return attendanceRecords;\n    }\n}\n",
  "sourcePath": "/home/dagger/Documents/DApp Workshop/Workshop/contracts/Attendance.sol",
  "compiler": {
    "name": "solc",
    "version": "0.8.19+commit.7dd6d404.Emscripten.clang"
  },
  "schemaVersion": "3.4.13",
  "updatedAt": "2023-06-28T09:42:17.957Z",
  "networkType": "ethereum",
  "devdoc": {
    "kind": "dev",
    "methods": {},
    "version": 1
  },
  "userdoc": {
    "kind": "user",
    "methods": {},
    "version": 1
  }
}